{
  "_format": "hh-sol-artifact-1",
  "contractName": "TinderERC721",
  "sourceName": "contracts/TinderERC721.sol",
  "abi": [
    {
      "inputs": [],
      "stateMutability": "nonpayable",
      "type": "constructor"
    },
    {
      "anonymous": false,
      "inputs": [
        {
          "indexed": true,
          "internalType": "address",
          "name": "owner",
          "type": "address"
        },
        {
          "indexed": true,
          "internalType": "address",
          "name": "approved",
          "type": "address"
        },
        {
          "indexed": true,
          "internalType": "uint256",
          "name": "tokenId",
          "type": "uint256"
        }
      ],
      "name": "Approval",
      "type": "event"
    },
    {
      "anonymous": false,
      "inputs": [
        {
          "indexed": true,
          "internalType": "address",
          "name": "owner",
          "type": "address"
        },
        {
          "indexed": true,
          "internalType": "address",
          "name": "operator",
          "type": "address"
        },
        {
          "indexed": false,
          "internalType": "bool",
          "name": "approved",
          "type": "bool"
        }
      ],
      "name": "ApprovalForAll",
      "type": "event"
    },
    {
      "anonymous": false,
      "inputs": [
        {
          "indexed": true,
          "internalType": "address",
          "name": "from",
          "type": "address"
        },
        {
          "indexed": true,
          "internalType": "address",
          "name": "to",
          "type": "address"
        },
        {
          "indexed": true,
          "internalType": "uint256",
          "name": "tokenId",
          "type": "uint256"
        }
      ],
      "name": "Transfer",
      "type": "event"
    },
    {
      "inputs": [
        {
          "internalType": "address",
          "name": "to",
          "type": "address"
        },
        {
          "internalType": "uint256",
          "name": "tokenId",
          "type": "uint256"
        }
      ],
      "name": "approve",
      "outputs": [],
      "stateMutability": "nonpayable",
      "type": "function"
    },
    {
      "inputs": [
        {
          "internalType": "address",
          "name": "owner",
          "type": "address"
        }
      ],
      "name": "balanceOf",
      "outputs": [
        {
          "internalType": "uint256",
          "name": "",
          "type": "uint256"
        }
      ],
      "stateMutability": "view",
      "type": "function"
    },
    {
      "inputs": [
        {
          "internalType": "uint256",
          "name": "tokenId",
          "type": "uint256"
        }
      ],
      "name": "getApproved",
      "outputs": [
        {
          "internalType": "address",
          "name": "",
          "type": "address"
        }
      ],
      "stateMutability": "view",
      "type": "function"
    },
    {
      "inputs": [
        {
          "internalType": "address",
          "name": "owner",
          "type": "address"
        },
        {
          "internalType": "address",
          "name": "operator",
          "type": "address"
        }
      ],
      "name": "isApprovedForAll",
      "outputs": [
        {
          "internalType": "bool",
          "name": "",
          "type": "bool"
        }
      ],
      "stateMutability": "view",
      "type": "function"
    },
    {
      "inputs": [
        {
          "internalType": "address",
          "name": "_userOne",
          "type": "address"
        },
        {
          "internalType": "address",
          "name": "_userTwo",
          "type": "address"
        },
        {
          "internalType": "string",
          "name": "tokenURI",
          "type": "string"
        }
      ],
      "name": "mintNFT",
      "outputs": [],
      "stateMutability": "nonpayable",
      "type": "function"
    },
    {
      "inputs": [],
      "name": "name",
      "outputs": [
        {
          "internalType": "string",
          "name": "",
          "type": "string"
        }
      ],
      "stateMutability": "view",
      "type": "function"
    },
    {
      "inputs": [
        {
          "internalType": "uint256",
          "name": "tokenId",
          "type": "uint256"
        }
      ],
      "name": "ownerOf",
      "outputs": [
        {
          "internalType": "address",
          "name": "",
          "type": "address"
        }
      ],
      "stateMutability": "view",
      "type": "function"
    },
    {
      "inputs": [
        {
          "internalType": "address",
          "name": "from",
          "type": "address"
        },
        {
          "internalType": "address",
          "name": "to",
          "type": "address"
        },
        {
          "internalType": "uint256",
          "name": "tokenId",
          "type": "uint256"
        }
      ],
      "name": "safeTransferFrom",
      "outputs": [],
      "stateMutability": "nonpayable",
      "type": "function"
    },
    {
      "inputs": [
        {
          "internalType": "address",
          "name": "from",
          "type": "address"
        },
        {
          "internalType": "address",
          "name": "to",
          "type": "address"
        },
        {
          "internalType": "uint256",
          "name": "tokenId",
          "type": "uint256"
        },
        {
          "internalType": "bytes",
          "name": "_data",
          "type": "bytes"
        }
      ],
      "name": "safeTransferFrom",
      "outputs": [],
      "stateMutability": "nonpayable",
      "type": "function"
    },
    {
      "inputs": [
        {
          "internalType": "address",
          "name": "operator",
          "type": "address"
        },
        {
          "internalType": "bool",
          "name": "approved",
          "type": "bool"
        }
      ],
      "name": "setApprovalForAll",
      "outputs": [],
      "stateMutability": "nonpayable",
      "type": "function"
    },
    {
      "inputs": [
        {
          "internalType": "bytes4",
          "name": "interfaceId",
          "type": "bytes4"
        }
      ],
      "name": "supportsInterface",
      "outputs": [
        {
          "internalType": "bool",
          "name": "",
          "type": "bool"
        }
      ],
      "stateMutability": "view",
      "type": "function"
    },
    {
      "inputs": [],
      "name": "symbol",
      "outputs": [
        {
          "internalType": "string",
          "name": "",
          "type": "string"
        }
      ],
      "stateMutability": "view",
      "type": "function"
    },
    {
      "inputs": [
        {
          "internalType": "uint256",
          "name": "tokenId",
          "type": "uint256"
        }
      ],
      "name": "tokenURI",
      "outputs": [
        {
          "internalType": "string",
          "name": "",
          "type": "string"
        }
      ],
      "stateMutability": "view",
      "type": "function"
    },
    {
      "inputs": [
        {
          "internalType": "address",
          "name": "from",
          "type": "address"
        },
        {
          "internalType": "address",
          "name": "to",
          "type": "address"
        },
        {
          "internalType": "uint256",
          "name": "tokenId",
          "type": "uint256"
        }
      ],
      "name": "transferFrom",
      "outputs": [],
      "stateMutability": "nonpayable",
      "type": "function"
    }
  ],
  "bytecode": "0x60806040523480156200001157600080fd5b506040518060400160405280600981526020017f436c657665724e465400000000000000000000000000000000000000000000008152506040518060400160405280600281526020017f434e000000000000000000000000000000000000000000000000000000000000815250816000908051906020019062000096929190620000b8565b508060019080519060200190620000af929190620000b8565b505050620001cd565b828054620000c69062000168565b90600052602060002090601f016020900481019282620000ea576000855562000136565b82601f106200010557805160ff191683800117855562000136565b8280016001018555821562000136579182015b828111156200013557825182559160200191906001019062000118565b5b50905062000145919062000149565b5090565b5b80821115620001645760008160009055506001016200014a565b5090565b600060028204905060018216806200018157607f821691505b602082108114156200019857620001976200019e565b5b50919050565b7f4e487b7100000000000000000000000000000000000000000000000000000000600052602260045260246000fd5b612ba280620001dd6000396000f3fe608060405234801561001057600080fd5b50600436106100ea5760003560e01c806370a082311161008c578063a22cb46511610066578063a22cb4651461025b578063b88d4fde14610277578063c87b56dd14610293578063e985e9c5146102c3576100ea565b806370a08231146101f15780637c818f541461022157806395d89b411461023d576100ea565b8063095ea7b3116100c8578063095ea7b31461016d57806323b872dd1461018957806342842e0e146101a55780636352211e146101c1576100ea565b806301ffc9a7146100ef57806306fdde031461011f578063081812fc1461013d575b600080fd5b61010960048036038101906101049190611c4f565b6102f3565b6040516101169190612055565b60405180910390f35b6101276103d5565b6040516101349190612070565b60405180910390f35b61015760048036038101906101529190611ca1565b610467565b6040516101649190611fee565b60405180910390f35b61018760048036038101906101829190611c13565b6104ec565b005b6101a3600480360381019061019e9190611b0d565b610604565b005b6101bf60048036038101906101ba9190611b0d565b610664565b005b6101db60048036038101906101d69190611ca1565b610684565b6040516101e89190611fee565b60405180910390f35b61020b60048036038101906102069190611a41565b610736565b6040516102189190612292565b60405180910390f35b61023b60048036038101906102369190611aa6565b6107ee565b005b610245610853565b6040516102529190612070565b60405180910390f35b61027560048036038101906102709190611bd7565b6108e5565b005b610291600480360381019061028c9190611b5c565b6108fb565b005b6102ad60048036038101906102a89190611ca1565b61095d565b6040516102ba9190612070565b60405180910390f35b6102dd60048036038101906102d89190611a6a565b610aaf565b6040516102ea9190612055565b60405180910390f35b60007f80ac58cd000000000000000000000000000000000000000000000000000000007bffffffffffffffffffffffffffffffffffffffffffffffffffffffff1916827bffffffffffffffffffffffffffffffffffffffffffffffffffffffff191614806103be57507f5b5e139f000000000000000000000000000000000000000000000000000000007bffffffffffffffffffffffffffffffffffffffffffffffffffffffff1916827bffffffffffffffffffffffffffffffffffffffffffffffffffffffff1916145b806103ce57506103cd82610b43565b5b9050919050565b6060600080546103e4906124e8565b80601f0160208091040260200160405190810160405280929190818152602001828054610410906124e8565b801561045d5780601f106104325761010080835404028352916020019161045d565b820191906000526020600020905b81548152906001019060200180831161044057829003601f168201915b5050505050905090565b600061047282610bad565b6104b1576040517f08c379a00000000000000000000000000000000000000000000000000000000081526004016104a890612212565b60405180910390fd5b6004600083815260200190815260200160002060009054906101000a900473ffffffffffffffffffffffffffffffffffffffff169050919050565b60006104f782610684565b90508073ffffffffffffffffffffffffffffffffffffffff168373ffffffffffffffffffffffffffffffffffffffff161415610568576040517f08c379a000000000000000000000000000000000000000000000000000000000815260040161055f90612252565b60405180910390fd5b8073ffffffffffffffffffffffffffffffffffffffff16610587610c19565b73ffffffffffffffffffffffffffffffffffffffff1614806105b657506105b5816105b0610c19565b610aaf565b5b6105f5576040517f08c379a00000000000000000000000000000000000000000000000000000000081526004016105ec90612152565b60405180910390fd5b6105ff8383610c21565b505050565b61061561060f610c19565b82610cda565b610654576040517f08c379a000000000000000000000000000000000000000000000000000000000815260040161064b90612272565b60405180910390fd5b61065f838383610db8565b505050565b61067f838383604051806020016040528060008152506108fb565b505050565b6000806002600084815260200190815260200160002060009054906101000a900473ffffffffffffffffffffffffffffffffffffffff169050600073ffffffffffffffffffffffffffffffffffffffff168173ffffffffffffffffffffffffffffffffffffffff16141561072d576040517f08c379a000000000000000000000000000000000000000000000000000000000815260040161072490612192565b60405180910390fd5b80915050919050565b60008073ffffffffffffffffffffffffffffffffffffffff168273ffffffffffffffffffffffffffffffffffffffff1614156107a7576040517f08c379a000000000000000000000000000000000000000000000000000000000815260040161079e90612172565b60405180910390fd5b600360008373ffffffffffffffffffffffffffffffffffffffff1673ffffffffffffffffffffffffffffffffffffffff168152602001908152602001600020549050919050565b6107fa8360075461101f565b610806600754826111f9565b600760008154809291906108199061254b565b919050555061082a8260075461101f565b610836600754826111f9565b600760008154809291906108499061254b565b9190505550505050565b606060018054610862906124e8565b80601f016020809104026020016040519081016040528092919081815260200182805461088e906124e8565b80156108db5780601f106108b0576101008083540402835291602001916108db565b820191906000526020600020905b8154815290600101906020018083116108be57829003601f168201915b5050505050905090565b6108f76108f0610c19565b838361126d565b5050565b61090c610906610c19565b83610cda565b61094b576040517f08c379a000000000000000000000000000000000000000000000000000000000815260040161094290612272565b60405180910390fd5b610957848484846113da565b50505050565b606061096882610bad565b6109a7576040517f08c379a000000000000000000000000000000000000000000000000000000000815260040161099e906121f2565b60405180910390fd5b60006006600084815260200190815260200160002080546109c7906124e8565b80601f01602080910402602001604051908101604052809291908181526020018280546109f3906124e8565b8015610a405780601f10610a1557610100808354040283529160200191610a40565b820191906000526020600020905b815481529060010190602001808311610a2357829003601f168201915b505050505090506000610a51611436565b9050600081511415610a67578192505050610aaa565b600082511115610a9c578082604051602001610a84929190611fca565b60405160208183030381529060405292505050610aaa565b610aa58461144d565b925050505b919050565b6000600560008473ffffffffffffffffffffffffffffffffffffffff1673ffffffffffffffffffffffffffffffffffffffff16815260200190815260200160002060008373ffffffffffffffffffffffffffffffffffffffff1673ffffffffffffffffffffffffffffffffffffffff16815260200190815260200160002060009054906101000a900460ff16905092915050565b60007f01ffc9a7000000000000000000000000000000000000000000000000000000007bffffffffffffffffffffffffffffffffffffffffffffffffffffffff1916827bffffffffffffffffffffffffffffffffffffffffffffffffffffffff1916149050919050565b60008073ffffffffffffffffffffffffffffffffffffffff166002600084815260200190815260200160002060009054906101000a900473ffffffffffffffffffffffffffffffffffffffff1673ffffffffffffffffffffffffffffffffffffffff1614159050919050565b600033905090565b816004600083815260200190815260200160002060006101000a81548173ffffffffffffffffffffffffffffffffffffffff021916908373ffffffffffffffffffffffffffffffffffffffff160217905550808273ffffffffffffffffffffffffffffffffffffffff16610c9483610684565b73ffffffffffffffffffffffffffffffffffffffff167f8c5be1e5ebec7d5bd14f71427d1e84f3dd0314c0f7b2291e5b200ac8c7c3b92560405160405180910390a45050565b6000610ce582610bad565b610d24576040517f08c379a0000000000000000000000000000000000000000000000000000000008152600401610d1b90612132565b60405180910390fd5b6000610d2f83610684565b90508073ffffffffffffffffffffffffffffffffffffffff168473ffffffffffffffffffffffffffffffffffffffff161480610d9e57508373ffffffffffffffffffffffffffffffffffffffff16610d8684610467565b73ffffffffffffffffffffffffffffffffffffffff16145b80610daf5750610dae8185610aaf565b5b91505092915050565b8273ffffffffffffffffffffffffffffffffffffffff16610dd882610684565b73ffffffffffffffffffffffffffffffffffffffff1614610e2e576040517f08c379a0000000000000000000000000000000000000000000000000000000008152600401610e25906120b2565b60405180910390fd5b600073ffffffffffffffffffffffffffffffffffffffff168273ffffffffffffffffffffffffffffffffffffffff161415610e9e576040517f08c379a0000000000000000000000000000000000000000000000000000000008152600401610e95906120f2565b60405180910390fd5b610ea98383836114f4565b610eb4600082610c21565b6001600360008573ffffffffffffffffffffffffffffffffffffffff1673ffffffffffffffffffffffffffffffffffffffff1681526020019081526020016000206000828254610f0491906123fe565b925050819055506001600360008473ffffffffffffffffffffffffffffffffffffffff1673ffffffffffffffffffffffffffffffffffffffff1681526020019081526020016000206000828254610f5b9190612377565b92505081905550816002600083815260200190815260200160002060006101000a81548173ffffffffffffffffffffffffffffffffffffffff021916908373ffffffffffffffffffffffffffffffffffffffff160217905550808273ffffffffffffffffffffffffffffffffffffffff168473ffffffffffffffffffffffffffffffffffffffff167fddf252ad1be2c89b69c2b068fc378daa952ba7f163c4a11628f55a4df523b3ef60405160405180910390a461101a8383836114f9565b505050565b600073ffffffffffffffffffffffffffffffffffffffff168273ffffffffffffffffffffffffffffffffffffffff16141561108f576040517f08c379a0000000000000000000000000000000000000000000000000000000008152600401611086906121d2565b60405180910390fd5b61109881610bad565b156110d8576040517f08c379a00000000000000000000000000000000000000000000000000000000081526004016110cf906120d2565b60405180910390fd5b6110e4600083836114f4565b6001600360008473ffffffffffffffffffffffffffffffffffffffff1673ffffffffffffffffffffffffffffffffffffffff16815260200190815260200160002060008282546111349190612377565b92505081905550816002600083815260200190815260200160002060006101000a81548173ffffffffffffffffffffffffffffffffffffffff021916908373ffffffffffffffffffffffffffffffffffffffff160217905550808273ffffffffffffffffffffffffffffffffffffffff16600073ffffffffffffffffffffffffffffffffffffffff167fddf252ad1be2c89b69c2b068fc378daa952ba7f163c4a11628f55a4df523b3ef60405160405180910390a46111f5600083836114f9565b5050565b61120282610bad565b611241576040517f08c379a0000000000000000000000000000000000000000000000000000000008152600401611238906121b2565b60405180910390fd5b80600660008481526020019081526020016000209080519060200190611268929190611865565b505050565b8173ffffffffffffffffffffffffffffffffffffffff168373ffffffffffffffffffffffffffffffffffffffff1614156112dc576040517f08c379a00000000000000000000000000000000000000000000000000000000081526004016112d390612112565b60405180910390fd5b80600560008573ffffffffffffffffffffffffffffffffffffffff1673ffffffffffffffffffffffffffffffffffffffff16815260200190815260200160002060008473ffffffffffffffffffffffffffffffffffffffff1673ffffffffffffffffffffffffffffffffffffffff16815260200190815260200160002060006101000a81548160ff0219169083151502179055508173ffffffffffffffffffffffffffffffffffffffff168373ffffffffffffffffffffffffffffffffffffffff167f17307eab39ab6107e8899845ad3d59bd9653f200f220920489ca2b5937696c31836040516113cd9190612055565b60405180910390a3505050565b6113e5848484610db8565b6113f1848484846114fe565b611430576040517f08c379a000000000000000000000000000000000000000000000000000000000815260040161142790612092565b60405180910390fd5b50505050565b606060405180602001604052806000815250905090565b606061145882610bad565b611497576040517f08c379a000000000000000000000000000000000000000000000000000000000815260040161148e90612232565b60405180910390fd5b60006114a1611436565b905060008151116114c157604051806020016040528060008152506114ec565b806114cb84611695565b6040516020016114dc929190611fca565b6040516020818303038152906040525b915050919050565b505050565b505050565b600061151f8473ffffffffffffffffffffffffffffffffffffffff16611842565b15611688578373ffffffffffffffffffffffffffffffffffffffff1663150b7a02611548610c19565b8786866040518563ffffffff1660e01b815260040161156a9493929190612009565b602060405180830381600087803b15801561158457600080fd5b505af19250505080156115b557506040513d601f19601f820116820180604052508101906115b29190611c78565b60015b611638573d80600081146115e5576040519150601f19603f3d011682016040523d82523d6000602084013e6115ea565b606091505b50600081511415611630576040517f08c379a000000000000000000000000000000000000000000000000000000000815260040161162790612092565b60405180910390fd5b805181602001fd5b63150b7a0260e01b7bffffffffffffffffffffffffffffffffffffffffffffffffffffffff1916817bffffffffffffffffffffffffffffffffffffffffffffffffffffffff19161491505061168d565b600190505b949350505050565b606060008214156116dd576040518060400160405280600181526020017f3000000000000000000000000000000000000000000000000000000000000000815250905061183d565b600082905060005b6000821461170f5780806116f89061254b565b915050600a8261170891906123cd565b91506116e5565b60008167ffffffffffffffff811115611751577f4e487b7100000000000000000000000000000000000000000000000000000000600052604160045260246000fd5b6040519080825280601f01601f1916602001820160405280156117835781602001600182028036833780820191505090505b5090505b600085146118365760018261179c91906123fe565b9150600a856117ab9190612594565b60306117b79190612377565b60f81b8183815181106117f3577f4e487b7100000000000000000000000000000000000000000000000000000000600052603260045260246000fd5b60200101907effffffffffffffffffffffffffffffffffffffffffffffffffffffffffffff1916908160001a905350600a8561182f91906123cd565b9450611787565b8093505050505b919050565b6000808273ffffffffffffffffffffffffffffffffffffffff163b119050919050565b828054611871906124e8565b90600052602060002090601f01602090048101928261189357600085556118da565b82601f106118ac57805160ff19168380011785556118da565b828001600101855582156118da579182015b828111156118d95782518255916020019190600101906118be565b5b5090506118e791906118eb565b5090565b5b808211156119045760008160009055506001016118ec565b5090565b600061191b611916846122d2565b6122ad565b90508281526020810184848401111561193357600080fd5b61193e8482856124a6565b509392505050565b600061195961195484612303565b6122ad565b90508281526020810184848401111561197157600080fd5b61197c8482856124a6565b509392505050565b60008135905061199381612b10565b92915050565b6000813590506119a881612b27565b92915050565b6000813590506119bd81612b3e565b92915050565b6000815190506119d281612b3e565b92915050565b600082601f8301126119e957600080fd5b81356119f9848260208601611908565b91505092915050565b600082601f830112611a1357600080fd5b8135611a23848260208601611946565b91505092915050565b600081359050611a3b81612b55565b92915050565b600060208284031215611a5357600080fd5b6000611a6184828501611984565b91505092915050565b60008060408385031215611a7d57600080fd5b6000611a8b85828601611984565b9250506020611a9c85828601611984565b9150509250929050565b600080600060608486031215611abb57600080fd5b6000611ac986828701611984565b9350506020611ada86828701611984565b925050604084013567ffffffffffffffff811115611af757600080fd5b611b0386828701611a02565b9150509250925092565b600080600060608486031215611b2257600080fd5b6000611b3086828701611984565b9350506020611b4186828701611984565b9250506040611b5286828701611a2c565b9150509250925092565b60008060008060808587031215611b7257600080fd5b6000611b8087828801611984565b9450506020611b9187828801611984565b9350506040611ba287828801611a2c565b925050606085013567ffffffffffffffff811115611bbf57600080fd5b611bcb878288016119d8565b91505092959194509250565b60008060408385031215611bea57600080fd5b6000611bf885828601611984565b9250506020611c0985828601611999565b9150509250929050565b60008060408385031215611c2657600080fd5b6000611c3485828601611984565b9250506020611c4585828601611a2c565b9150509250929050565b600060208284031215611c6157600080fd5b6000611c6f848285016119ae565b91505092915050565b600060208284031215611c8a57600080fd5b6000611c98848285016119c3565b91505092915050565b600060208284031215611cb357600080fd5b6000611cc184828501611a2c565b91505092915050565b611cd381612432565b82525050565b611ce281612444565b82525050565b6000611cf382612334565b611cfd818561234a565b9350611d0d8185602086016124b5565b611d1681612681565b840191505092915050565b6000611d2c8261233f565b611d36818561235b565b9350611d468185602086016124b5565b611d4f81612681565b840191505092915050565b6000611d658261233f565b611d6f818561236c565b9350611d7f8185602086016124b5565b80840191505092915050565b6000611d9860328361235b565b9150611da382612692565b604082019050919050565b6000611dbb60258361235b565b9150611dc6826126e1565b604082019050919050565b6000611dde601c8361235b565b9150611de982612730565b602082019050919050565b6000611e0160248361235b565b9150611e0c82612759565b604082019050919050565b6000611e2460198361235b565b9150611e2f826127a8565b602082019050919050565b6000611e47602c8361235b565b9150611e52826127d1565b604082019050919050565b6000611e6a60388361235b565b9150611e7582612820565b604082019050919050565b6000611e8d602a8361235b565b9150611e988261286f565b604082019050919050565b6000611eb060298361235b565b9150611ebb826128be565b604082019050919050565b6000611ed3602e8361235b565b9150611ede8261290d565b604082019050919050565b6000611ef660208361235b565b9150611f018261295c565b602082019050919050565b6000611f1960318361235b565b9150611f2482612985565b604082019050919050565b6000611f3c602c8361235b565b9150611f47826129d4565b604082019050919050565b6000611f5f602f8361235b565b9150611f6a82612a23565b604082019050919050565b6000611f8260218361235b565b9150611f8d82612a72565b604082019050919050565b6000611fa560318361235b565b9150611fb082612ac1565b604082019050919050565b611fc48161249c565b82525050565b6000611fd68285611d5a565b9150611fe28284611d5a565b91508190509392505050565b60006020820190506120036000830184611cca565b92915050565b600060808201905061201e6000830187611cca565b61202b6020830186611cca565b6120386040830185611fbb565b818103606083015261204a8184611ce8565b905095945050505050565b600060208201905061206a6000830184611cd9565b92915050565b6000602082019050818103600083015261208a8184611d21565b905092915050565b600060208201905081810360008301526120ab81611d8b565b9050919050565b600060208201905081810360008301526120cb81611dae565b9050919050565b600060208201905081810360008301526120eb81611dd1565b9050919050565b6000602082019050818103600083015261210b81611df4565b9050919050565b6000602082019050818103600083015261212b81611e17565b9050919050565b6000602082019050818103600083015261214b81611e3a565b9050919050565b6000602082019050818103600083015261216b81611e5d565b9050919050565b6000602082019050818103600083015261218b81611e80565b9050919050565b600060208201905081810360008301526121ab81611ea3565b9050919050565b600060208201905081810360008301526121cb81611ec6565b9050919050565b600060208201905081810360008301526121eb81611ee9565b9050919050565b6000602082019050818103600083015261220b81611f0c565b9050919050565b6000602082019050818103600083015261222b81611f2f565b9050919050565b6000602082019050818103600083015261224b81611f52565b9050919050565b6000602082019050818103600083015261226b81611f75565b9050919050565b6000602082019050818103600083015261228b81611f98565b9050919050565b60006020820190506122a76000830184611fbb565b92915050565b60006122b76122c8565b90506122c3828261251a565b919050565b6000604051905090565b600067ffffffffffffffff8211156122ed576122ec612652565b5b6122f682612681565b9050602081019050919050565b600067ffffffffffffffff82111561231e5761231d612652565b5b61232782612681565b9050602081019050919050565b600081519050919050565b600081519050919050565b600082825260208201905092915050565b600082825260208201905092915050565b600081905092915050565b60006123828261249c565b915061238d8361249c565b9250827fffffffffffffffffffffffffffffffffffffffffffffffffffffffffffffffff038211156123c2576123c16125c5565b5b828201905092915050565b60006123d88261249c565b91506123e38361249c565b9250826123f3576123f26125f4565b5b828204905092915050565b60006124098261249c565b91506124148361249c565b925082821015612427576124266125c5565b5b828203905092915050565b600061243d8261247c565b9050919050565b60008115159050919050565b60007fffffffff0000000000000000000000000000000000000000000000000000000082169050919050565b600073ffffffffffffffffffffffffffffffffffffffff82169050919050565b6000819050919050565b82818337600083830152505050565b60005b838110156124d35780820151818401526020810190506124b8565b838111156124e2576000848401525b50505050565b6000600282049050600182168061250057607f821691505b6020821081141561251457612513612623565b5b50919050565b61252382612681565b810181811067ffffffffffffffff8211171561254257612541612652565b5b80604052505050565b60006125568261249c565b91507fffffffffffffffffffffffffffffffffffffffffffffffffffffffffffffffff821415612589576125886125c5565b5b600182019050919050565b600061259f8261249c565b91506125aa8361249c565b9250826125ba576125b96125f4565b5b828206905092915050565b7f4e487b7100000000000000000000000000000000000000000000000000000000600052601160045260246000fd5b7f4e487b7100000000000000000000000000000000000000000000000000000000600052601260045260246000fd5b7f4e487b7100000000000000000000000000000000000000000000000000000000600052602260045260246000fd5b7f4e487b7100000000000000000000000000000000000000000000000000000000600052604160045260246000fd5b6000601f19601f8301169050919050565b7f4552433732313a207472616e7366657220746f206e6f6e20455243373231526560008201527f63656976657220696d706c656d656e7465720000000000000000000000000000602082015250565b7f4552433732313a207472616e736665722066726f6d20696e636f72726563742060008201527f6f776e6572000000000000000000000000000000000000000000000000000000602082015250565b7f4552433732313a20746f6b656e20616c7265616479206d696e74656400000000600082015250565b7f4552433732313a207472616e7366657220746f20746865207a65726f2061646460008201527f7265737300000000000000000000000000000000000000000000000000000000602082015250565b7f4552433732313a20617070726f766520746f2063616c6c657200000000000000600082015250565b7f4552433732313a206f70657261746f7220717565727920666f72206e6f6e657860008201527f697374656e7420746f6b656e0000000000000000000000000000000000000000602082015250565b7f4552433732313a20617070726f76652063616c6c6572206973206e6f74206f7760008201527f6e6572206e6f7220617070726f76656420666f7220616c6c0000000000000000602082015250565b7f4552433732313a2062616c616e636520717565727920666f7220746865207a6560008201527f726f206164647265737300000000000000000000000000000000000000000000602082015250565b7f4552433732313a206f776e657220717565727920666f72206e6f6e657869737460008201527f656e7420746f6b656e0000000000000000000000000000000000000000000000602082015250565b7f45524337323155524953746f726167653a2055524920736574206f66206e6f6e60008201527f6578697374656e7420746f6b656e000000000000000000000000000000000000602082015250565b7f4552433732313a206d696e7420746f20746865207a65726f2061646472657373600082015250565b7f45524337323155524953746f726167653a2055524920717565727920666f722060008201527f6e6f6e6578697374656e7420746f6b656e000000000000000000000000000000602082015250565b7f4552433732313a20617070726f76656420717565727920666f72206e6f6e657860008201527f697374656e7420746f6b656e0000000000000000000000000000000000000000602082015250565b7f4552433732314d657461646174613a2055524920717565727920666f72206e6f60008201527f6e6578697374656e7420746f6b656e0000000000000000000000000000000000602082015250565b7f4552433732313a20617070726f76616c20746f2063757272656e74206f776e6560008201527f7200000000000000000000000000000000000000000000000000000000000000602082015250565b7f4552433732313a207472616e736665722063616c6c6572206973206e6f74206f60008201527f776e6572206e6f7220617070726f766564000000000000000000000000000000602082015250565b612b1981612432565b8114612b2457600080fd5b50565b612b3081612444565b8114612b3b57600080fd5b50565b612b4781612450565b8114612b5257600080fd5b50565b612b5e8161249c565b8114612b6957600080fd5b5056fea264697066735822122043cc4423b1df0090f0cecce0fb52ded9c0223931aefc62c74c2e90a78ab7c55264736f6c63430008040033",
  "linkReferences": {},
  "deployedLinkReferences": {}
}